:020000040800F2
:1000000000500020613F0008E53D0008F13D000878
:10001000F73D0008FD3D0008033E00080000000019
:10002000000000000000000000000000093E000881
:10003000153E000800000000213E00082D3E00088B
:10004000A93F0008A93F0008A93F0008A93F0008F0
:10005000A93F0008A93F0008A93F0008A93F0008E0
:10006000A93F0008A93F0008A93F0008A93F0008D0
:10007000A93F0008A93F0008A93F0008A93F0008C0
:10008000A93F0008A93F0008A93F0008A93F0008B0
:10009000A93F0008A93F0008A93F0008393E000811
:1000A000A93F0008653E0008A93F0008A93F0008D5
:1000B000A93F0008A93F0008A93F0008A93F000880
:1000C000A93F0008A93F0008A93F0008A93F000870
:1000D000A93F0008A93F0008A93F0008A93F000860
:1000E000793E0008A93F0008A93F00080000000071
:1000F0000000000000000000000000000000000000
:0C01000000000000000000005FF808F1A3
:10011000034613F8012B002AFBD1181A0138704747
:1001200081F0004102E000BF83F0004330B54FEAA8
:1001300041044FEA430594EA050F08BF90EA020F15
:100140001FBF54EA000C55EA020C7FEA645C7FEAA8
:10015000655C00F0E2804FEA5454D4EB5555B8BFCB
:100160006D420CDD2C4480EA020281EA030382EA3C
:10017000000083EA010180EA020281EA0303362DCE
:1001800088BF30BD11F0004F4FEA01314FF4801CA1
:100190004CEA113102D0404261EB410113F0004FB3
:1001A0004FEA03334CEA133302D0524263EB43036A
:1001B00094EA050F00F0A780A4F10104D5F1200E08
:1001C0000DDB02FA0EFC22FA05F2801841F1000163
:1001D00003FA0EF2801843FA05F359410EE0A5F137
:1001E00020050EF1200E012A03FA0EFC28BF4CF068
:1001F000020C43FA05F3C01851EBE37101F000451E
:1002000007D54FF0000EDCF1000C7EEB00006EEB2A
:100210000101B1F5801F1BD3B1F5001F0CD34908B4
:100220005FEA30004FEA3C0C04F101044FEA44520B
:1002300012F5800F80F09A80BCF1004F08BF5FEA92
:10024000500C50F1000041EB045141EA050130BD72
:100250005FEA4C0C404141EB0101013C28BFB1F584
:10026000801FE9D291F0000F04BF01460020B1FACF
:1002700081F308BF2033A3F10B03B3F120020CDAA2
:100280000C3208DD02F1140CC2F10C0201FA0CF080
:1002900021FA02F10CE002F11402D8BFC2F1200CE5
:1002A00001FA02F120FA0CFCDCBF41EA0C0190409B
:1002B000E41AA2BF01EB0451294330BD6FEA0404E4
:1002C0001F3C1CDA0C340EDC04F11404C4F12002CF
:1002D00020FA04F001FA02F340EA030021FA04F3E1
:1002E00045EA030130BDC4F10C04C4F1200220FA38
:1002F00002F001FA04F340EA0300294630BD21FA76
:1003000004F0294630BD94F0000F83F4801306BF3B
:1003100081F480110134013D4EE77FEA645C18BF2F
:100320007FEA655C29D094EA050F08BF90EA020FC6
:1003300005D054EA000C04BF1946104630BD91EABE
:10034000030F1EBF0021002030BD5FEA545C05D1C1
:100350004000494128BF41F0004130BD14F5800400
:100360003CBF01F5801130BD01F0004545F0FE4174
:1003700041F470014FF0000030BD7FEA645C1ABFA9
:10038000194610467FEA655C1CBF0B46024650EAE0
:10039000013406BF52EA033591EA030F41F400210C
:1003A00030BD00BF90F0000F04BF0021704730B592
:1003B0004FF4806404F132044FF000054FF0000167
:1003C00050E700BF90F0000F04BF0021704730B528
:1003D0004FF4806404F1320410F0004548BF4042FD
:1003E0004FF000013EE700BF42004FEAE2014FEA52
:1003F00031014FEA02701FBF12F07F4393F07F4F2D
:1004000081F06051704732F07F4208BF704793F02F
:100410007F4F04BF41F40021704730B54FF4607442
:1004200001F0004521F000411CE700BF50EA010245
:1004300008BF704730B54FF000050AE050EA0102EE
:1004400008BF704730B511F0004502D5404261EB5E
:1004500041014FF4806404F132045FEA915C3FF49F
:10046000D8AE4FF003025FEADC0C18BF03325FEA3C
:10047000DC0C18BF033202EBDC02C2F1200300FAED
:1004800003FC20FA02F001FA03FE40EA0E0021FA12
:1004900002F11444BDE600BF70B54FF0FF0C4CF400
:1004A000E06C1CEA11541DBF1CEA135594EA0C0FB2
:1004B00095EA0C0F00F0DEF82C4481EA030621EAED
:1004C0004C5123EA4C5350EA013518BF52EA033528
:1004D00041F4801143F4801338D0A0FB02CE4FF0DA
:1004E0000005E1FB02E506F00042E0FB03E54FF00A
:1004F0000006E1FB03569CF0000F18BF4EF0010E02
:10050000A4F1FF04B6F5007F64F5407404D25FEAFD
:100510004E0E6D4146EB060642EAC62141EA5551B0
:100520004FEAC52040EA5E504FEACE2EB4F1FD0CF2
:1005300088BFBCF5E06F1ED8BEF1004F08BF5FEA70
:10054000500E50F1000041EB045170BD06F0004622
:1005500046EA010140EA020081EA0301B4EB5C04CF
:10056000C2BFD4EB0C0541EA045170BD41F48011C7
:100570004FF0000E013C00F3AB8014F1360FDEBFEC
:10058000002001F0004170BDC4F10004203C35DAC8
:100590000C341BDC04F11404C4F1200500FA05F34B
:1005A00020FA04F001FA05F240EA020001F00042EC
:1005B00021F0004110EBD37021FA04F642EB060162
:1005C0005EEA430E08BF20EAD37070BDC4F10C048C
:1005D000C4F1200500FA04F320FA05F001FA04F250
:1005E00040EA020001F0004110EBD37041F100013C
:1005F0005EEA430E08BF20EAD37070BDC4F1200547
:1006000000FA05F24EEA020E20FA04F301FA05F2AE
:1006100043EA020321FA04F001F0004121FA04F256
:1006200020EA020000EBD3705EEA430E08BF20EA26
:10063000D37070BD94F0000F0FD101F00046400060
:1006400041EB010111F4801F08BF013CF7D041EAE2
:10065000060195F0000F18BF704703F000465200E6
:1006600043EB030313F4801F08BF013DF7D043EAB7
:100670000603704794EA0C0F0CEA135518BF95EA6D
:100680000C0F0CD050EA410618BF52EA4306D1D1F4
:1006900081EA030101F000414FF0000070BD50EA13
:1006A000410606BF1046194652EA430619D094EA9D
:1006B0000C0F02D150EA013613D195EA0C0F05D187
:1006C00052EA03361CBF104619460AD181EA0301DB
:1006D00001F0004141F0FE4141F470014FF0000093
:1006E00070BD41F0FE4141F4780170BD70B54FF02E
:1006F000FF0C4CF4E06C1CEA11541DBF1CEA1355AE
:1007000094EA0C0F95EA0C0F00F0A7F8A4EB05048F
:1007100081EA030E52EA03354FEA013100F0888086
:100720004FEA03334FF0805545EA131343EA12634F
:100730004FEA022245EA111545EA10654FEA002604
:100740000EF000419D4208BF964244F1FD0404F5BD
:10075000407402D25B084FEA3202B61A65EB030519
:100760005B084FEA32024FF480104FF4002CB6EBD6
:10077000020E75EB030E22BFB61A754640EA0C0056
:100780005B084FEA3202B6EB020E75EB030E22BF96
:10079000B61A754640EA5C005B084FEA3202B6EBD7
:1007A000020E75EB030E22BFB61A754640EA9C0096
:1007B0005B084FEA3202B6EB020E75EB030E22BF66
:1007C000B61A754640EADC0055EA060E18D04FEA24
:1007D000051545EA16754FEA06164FEAC30343EAC4
:1007E00052734FEAC2025FEA1C1CC0D111F4801F91
:1007F0000BD141EA00014FF000004FF0004CB6E78A
:1008000011F4801F04BF01430020B4F1FD0C88BF28
:10081000BCF5E06F3FF6AFAEB5EB030C04BFB6EB33
:10082000020C5FEA500C50F1000041EB045170BD26
:100830000EF0004E4EEA113114EB5C04C2BFD4EB53
:100840000C0541EA045170BD41F480114FF0000ED7
:10085000013C90E645EA060E8DE60CEA135594EA53
:100860000C0F08BF95EA0C0F3FF43BAF94EA0C0F56
:100870000AD150EA01347FF434AF95EA0C0F7FF4CB
:1008800025AF104619462CE795EA0C0F06D152EA1F
:1008900003353FF4FDAE1046194622E750EA410603
:1008A00018BF52EA43067FF4C5AE50EA41047FF414
:1008B0000DAF52EA43057FF4EBAE12E74FF0FF3C79
:1008C00006E000BF4FF0010C02E000BF4FF0010C4A
:1008D0004DF804CD4FEA410C7FEA6C5C4FEA430CC3
:1008E00018BF7FEA6C5C1BD001B050EA410C0CBF12
:1008F00052EA430C91EA030F02BF90EA020F002074
:10090000704710F1000F91EA030F58BF994208BFDA
:1009100090422CBFD8176FEAE37040F00100704797
:100920004FEA410C7FEA6C5C02D150EA013C07D1EE
:100930004FEA430C7FEA6C5CD6D152EA033CD3D039
:100940005DF8040B704700BF8446104662468C4633
:100950001946634600E000BF01B5FFF7B7FF002866
:1009600048BF10F1000F01BD4DF808EDFFF7F4FF8F
:100970000CBF012000205DF808FB00BF4DF808ED1A
:10098000FFF7EAFF34BF012000205DF808FB00BF3D
:100990004DF808EDFFF7E0FF94BF012000205DF85F
:1009A00008FB00BF4DF808EDFFF7CEFF94BF012014
:1009B00000205DF808FB00BF4DF808EDFFF7C4FF0D
:1009C00034BF012000205DF808FB00BF4FEA410C56
:1009D0007FEA6C5C02D150EA013C0AD14FEA430C39
:1009E0007FEA6C5C02D152EA033C02D14FF0000076
:1009F00070474FF0010070474FEA410212F50012B4
:100A000015D211D56FF47873B3EB625212D94FEA55
:100A1000C12343F0004343EA505311F0004F23FA3F
:100A200002F018BF404270474FF00000704750EA94
:100A3000013005D111F0004008BF6FF00040704751
:100A40004FF00000704700BF10B5054C227832B956
:100A5000044B13B10448AFF300800123237010BD91
:100A6000EC010020000000009461000808B5034B71
:100A70001BB103490348AFF3008008BD000000002C
:100A8000F00100209461000880B500AF084B1B689E
:100A9000074A43F010031360032000F051FB0020CD
:100AA00000F008F802F0E8FF0023184680BD00BF00
:100AB0000020024080B582B000AF7860124B1A6807
:100AC000124B1B7819464FF47A73B3FBF1F3B2FB68
:100AD000F3F3184600F069FB0346002B01D0012315
:100AE0000EE07B680F2B0AD8002279684FF0FF30A8
:100AF00000F031FB064A7B681360002300E001230D
:100B000018460837BD4680BD1800002004000020AC
:100B10000000002080B400AF054B1B781A46054B3F
:100B20001B681344034A136000BFBD4680BC704776
:100B3000040000200802002080B400AF024B1B68B4
:100B40001846BD4680BC70470802002080B584B0BE
:100B500000AF7860FFF7F0FFB8607B68FB60FB6870
:100B6000B3F1FF3F05D00A4B1B781A46FB681344CC
:100B7000FB6000BFFFF7E0FF0246BB68D31AFA68CC
:100B80009A42F7D800BF00BF1037BD4680BD00BFF6
:100B90000400002080B586B000AF78600023FB75AC
:100BA00000233B610023BB600023FB607B68002BBC
:100BB00001D10123BEE07B689B68002B7B689B6AA8
:100BC000002B09D17B680022DA627B68002283F85F
:100BD0002420786802F082FF786800F0ABF90346C1
:100BE000FB757B689B6A03F01003002B40F0998033
:100BF000FB7D002B40F095807B689B6A23F4885333
:100C000023F0020343F002027B689A627B685A6811
:100C10007B68DB691A437B681B7B5B001343BA6804
:100C20001343BB607B689B68B3F5807F03D07B6810
:100C30009B68012B02D14FF4807300E000233A69D6
:100C400013433B617B681B7D012B19D17B681B7BA8
:100C5000002B09D17B689B69013B5A033B69134315
:100C600043F400633B610BE07B689B6A43F0200226
:100C70007B689A627B68DB6A43F001027B68DA6218
:100C80007B681B685B6823F469417B681B683A6971
:100C90000A435A607B681B689A68284B13407A683D
:100CA0001268B9680B4393607B689B68B3F5807FDB
:100CB00003D07B689B68012B04D17B681B69013BD7
:100CC0001B05FB607B681B68DB6A23F470017B6893
:100CD0001B68FA680A43DA627B681B689A68184BDB
:100CE0001340BA689A420BD17B680022DA627B68B3
:100CF0009B6A23F0030343F001027B689A6218E0C9
:100D00007B689B6A23F0120343F010027B689A62AF
:100D10007B68DB6A43F001027B68DA620123FB75C2
:100D200007E07B689B6A43F010027B689A620123AC
:100D3000FB75FB7D18461837BD4680BDFDF7E1FF0A
:100D4000FE0E1FFF80B485B000AF786039600023CD
:100D5000FB730023BB607B6893F82430012B01D127
:100D60000223DCE07B68012283F824203B685B6877
:100D7000062B1CD87B681B68596B3B685A68134666
:100D80009B001344053B1F2202FA03F3DB43194087
:100D90003B6818683B685A6813469B001344053B40
:100DA00000FA03F27B681B680A435A633CE03B6825
:100DB0005B680C2B1CD87B681B68196B3B685A68F6
:100DC00013469B001344233B1F2202FA03F3DB4329
:100DD00019403B6818683B685A6813469B001344E7
:100DE000233B00FA03F27B681B680A431A631BE08B
:100DF0007B681B68D96A3B685A6813469B0013449A
:100E0000413B1F2202FA03F3DB4319403B68186899
:100E10003B685A6813469B001344413B00FA03F2B7
:100E20007B681B680A43DA623B681B68092B1CD984
:100E30007B681B68D9683B681A6813465B001344DB
:100E40001E3B072202FA03F3DB4319403B68986814
:100E50003B681A6813465B0013441E3B00FA03F21A
:100E60007B681B680A43DA6019E07B681B681969B4
:100E70003B681A6813465B001344072202FA03F327
:100E8000DB4319403B6898683B681A6813465B006F
:100E9000134400FA03F27B681B680A431A613B683B
:100EA0001B68102B03D03B681B68112B32D17B6869
:100EB0001B681D4A934225D17B681B689B6803F41D
:100EC0000003002B26D17B681B689A687B681B682F
:100ED00042F400029A603B681B68102B1AD1134B36
:100EE0001B68134AA2FB03239A0C13469B0013446E
:100EF0005B00BB6002E0BB68013BBB60BB68002BD2
:100F0000F9D107E07B689B6A43F020027B689A6214
:100F10000123FB737B68002283F82420FB7B1846A7
:100F20001437BD4680BC70470024014018000020E3
:100F300083DE1B4380B584B000AF78600023FB6084
:100F40007B681B689B6803F00103012B27D17B683A
:100F50001B689A687B681B6822F001029A60FFF7A1
:100F6000EBFDF86014E0FFF7E7FD0246FB68D31ADB
:100F7000022B0DD97B689B6A43F010027B689A6252
:100F80007B68DB6A43F001027B68DA62012307E0D9
:100F90007B681B689B6803F00103012BE3D00023EF
:100FA00018461037BD4680BD80B485B000AF78606C
:100FB0007B6803F00703FB600C4BDB68BB60BA681F
:100FC0004FF6FF031340BB60FB681A02BB68134374
:100FD00043F0BF6343F40033BB60044ABB68D36093
:100FE00000BF1437BD4680BC704700BF00ED00E075
:100FF00080B400AF044BDB681B0A03F007031846FC
:10100000BD4680BC704700BF00ED00E080B483B0F7
:1010100000AF0346FB7197F90730002B0BDBFB7920
:1010200003F01F02064997F907305B09012000FA17
:1010300002F241F8232000BF0C37BD4680BC704748
:1010400000E100E080B483B000AF03463960FB717B
:1010500097F90730002B0ADB3B68DAB20C4997F9A5
:1010600007301201D2B20B4483F800230AE03B6838
:10107000DAB20849FB7903F00F03043B1201D2B244
:101080000B441A7600BF0C37BD4680BC704700BFCA
:1010900000E100E000ED00E080B489B000AFF8604E
:1010A000B9607A60FB6803F00703FB61FB69C3F179
:1010B0000703042B28BF0423BB61FB690433062B01
:1010C00002D9FB69033B00E000237B614FF0FF3254
:1010D000BB6902FA03F3DA43BB681A407B699A40A2
:1010E0004FF0FF317B6901FA03F3D9437B680B4072
:1010F000134318462437BD4680BC704780B582B084
:1011000000AF78607B68013BB3F1807F01D301239E
:101110000FE00A4A7B68013B53600F214FF0FF301C
:10112000FFF790FF054B00229A60044B07221A60DC
:10113000002318460837BD4680BD00BF10E000E020
:1011400080B582B000AF78607868FFF72DFF00BFF0
:101150000837BD4680BD80B586B000AF0346B96094
:101160007A60FB7300237B61FFF742FF78617A6846
:10117000B9687869FFF790FF024697F90F3011467A
:101180001846FFF75FFF00BF1837BD4680BD80B52A
:1011900082B000AF0346FB7197F907301846FFF79E
:1011A00035FF00BF0837BD4680BD80B582B000AFB7
:1011B00078607868FFF7A2FF034618460837BD46F7
:1011C00080BD000080B48BB000AF78603960002330
:1011D0007B6200233B6269E101227B6A02FA03F32E
:1011E000FB613B681B68FA691340BB61BA69FB6924
:1011F0009A4240F058813B685B689A4A93425ED0BD
:10120000984A934275D8984A934258D0964A934246
:101210006FD8964A934252D0944A934269D8944ADE
:1012200093424CD0924A934263D8924A934246D01A
:10123000904A93425DD8122B2AD8122B59D801A27A
:1012400052F823F0BF12000899120008AB120008F0
:10125000ED120008F3120008F3120008F312000860
:10126000F3120008F3120008F3120008F31200084A
:10127000F3120008F3120008F3120008F31200083A
:10128000F3120008F3120008A1120008B5120008BA
:10129000794A934213D02CE03B68DB683B6229E03B
:1012A0003B68DB6804333B6224E03B68DB6808335F
:1012B0003B621FE03B68DB680C333B621AE03B6833
:1012C0009B68002B02D104233B6213E03B689B68C0
:1012D000012B05D108233B627B68FA691A6109E09A
:1012E00008233B627B68FA695A6103E000233B6292
:1012F00000E000BFBB69FF2B01D87B6801E07B6881
:1013000004337B61BB69FF2B02D87B6A9B0002E040
:101310007B6A083B9B003B617B691A680F213B6934
:1013200001FA03F3DB431A40396A3B6901FA03F31C
:101330001A437B691A603B685B6803F08053002B9B
:1013400000F0B1804D4B9B694C4A43F0010393611F
:101350004A4B9B6903F00103BB60BB68484A7B6A48
:101360009B08023352F82330FB607B6A03F00303CF
:101370009B000F2202FA03F3DB43FA681340FB6081
:101380007B68404A934213D07B683F4A93420DD01A
:101390007B683E4A934207D07B683D4A934201D125
:1013A000032306E0042304E0022302E0012300E01B
:1013B00000237A6A02F0030292009340FA68134312
:1013C000FB602F497B6A9B080233FA6841F82320AF
:1013D0003B685B6803F48033002B06D02D4B1A6802
:1013E0002C49BB6913430B6006E02A4B1A68BB69A2
:1013F000DB43284913400B603B685B6803F4003310
:10140000002B06D0234B5A682249BB6913434B601B
:1014100006E0204B5A68BB69DB431E4913404B6012
:101420003B685B6803F48013002B06D0194B9A6865
:101430001849BB6913438B6006E0164B9A68BB6979
:10144000DB43144913408B603B685B6803F4001373
:10145000002B21D00F4BDA680E49BB691343CB60D8
:1014600021E000BF00003210000031100000221007
:1014700000002110000012100000111000100240A6
:101480000000014000080140000C01400010014034
:1014900000140140000401400B4BDA68BB69DB43D8
:1014A00009491340CB607B6A01337B623B681A6851
:1014B0007B6A22FA03F3002B7FF48EAE00BF00BFDD
:1014C0002C37BD4680BC70470004014080B485B015
:1014D00000AF78600B467B807B689A687B881340FE
:1014E000002B02D00123FB7301E00023FB73FB7B85
:1014F00018461437BD4680BC704780B483B000AF37
:1015000078600B467B8013467B707B78002B03D082
:101510007A887B681A6103E07B881A047B681A6109
:1015200000BF0C37BD4680BC7047000080B582B05C
:1015300000AF0346FB80084B5A69FB881340002B21
:1015400006D0054AFB885361FB88184601F0F0FE7F
:1015500000BF0837BD4680BD0004014080B586B09D
:1015600000AF78607B68002B01D101236CE27B68BF
:101570001B6803F00103002B00F08780924B5B682F
:1015800003F00C03042B0CD08F4B5B6803F00C03AF
:10159000082B12D18C4B5B6803F48033B3F5803F8A
:1015A0000BD1894B1B6803F40033002B6CD07B6894
:1015B0005B68002B68D1012346E27B685B68B3F56A
:1015C000803F06D1804B1B687F4A43F48033136011
:1015D0002EE07B685B68002B0CD17B4B1B687A4A42
:1015E00023F480331360784B1B68774A23F48023FD
:1015F00013601DE07B685B68B3F5A02F0CD1724BC4
:101600001B68714A43F4802313606F4B1B686E4A5A
:1016100043F4803313600BE06B4B1B686A4A23F47E
:1016200080331360684B1B68674A23F48023136080
:101630007B685B68002B13D0FFF77EFA386108E007
:10164000FFF77AFA02463B69D31A642B01D90323C8
:10165000FAE15D4B1B6803F40033002BF0D014E07B
:10166000FFF76AFA386108E0FFF766FA02463B695D
:10167000D31A642B01D90323E6E1534B1B6803F40F
:101680000033002BF0D100E000BF7B681B6803F043
:101690000203002B63D04C4B5B6803F00C03002B60
:1016A0000BD0494B5B6803F00C03082B1CD1464B55
:1016B0005B6803F48033002B16D1434B1B6803F0A7
:1016C0000203002B05D07B681B69012B01D001238D
:1016D000BAE13D4B1B6823F0F8027B685B69DB00D5
:1016E000394913430B603AE07B681B69002B20D01B
:1016F000364B01221A60FFF71FFA386108E0FFF746
:101700001BFA02463B69D31A022B01D903239BE142
:101710002D4B1B6803F00203002BF0D02A4B1B68F3
:1017200023F0F8027B685B69DB00274913430B60F9
:1017300015E0264B00221A60FFF7FEF9386108E039
:10174000FFF7FAF902463B69D31A022B01D90323AA
:101750007AE11D4B1B6803F00203002BF0D17B687C
:101760001B6803F00803002B3AD07B689B69002BB1
:1017700019D0174B01221A60FFF7DEF9386108E033
:10178000FFF7DAF902463B69D31A022B01D903238A
:101790005AE10D4B5B6A03F00203002BF0D00120ED
:1017A00000F0D8FA1CE00A4B00221A60FFF7C4F9D7
:1017B00038610FE0FFF7C0F902463B69D31A022BEC
:1017C00008D9032340E100BF00100240000042425C
:1017D000800442429E4B5B6A03F00203002BE9D176
:1017E0007B681B6803F00403002B00F0A680002335
:1017F000FB75974BDB6903F08053002B0DD1944BA5
:10180000DB69934A43F08053D361914BDB6903F06A
:101810008053BB60BB680123FB758E4B1B6803F4D0
:101820008073002B18D18B4B1B688A4A43F480735A
:101830001360FFF781F9386108E0FFF77DF9024690
:101840003B69D31A642B01D90323FDE0814B1B684C
:1018500003F48073002BF0D07B68DB68012B06D18A
:101860007B4B1B6A7A4A43F0010313622DE07B68CD
:10187000DB68002B0CD1764B1B6A754A23F0010301
:101880001362734B1B6A724A23F0040313621CE059
:101890007B68DB68052B0CD16D4B1B6A6C4A43F0EF
:1018A000040313626A4B1B6A694A43F00103136223
:1018B0000BE0674B1B6A664A23F001031362644B1B
:1018C0001B6A634A23F0040313627B68DB68002B06
:1018D00015D0FFF731F938610AE0FFF72DF902461C
:1018E0003B69D31A41F28832934201D90323ABE01A
:1018F000574B1B6A03F00203002BEED014E0FFF7F6
:101900001BF938610AE0FFF717F902463B69D31A61
:1019100041F28832934201D9032395E04C4B1B6A74
:1019200003F00203002BEED1FB7D012B05D1484BC8
:10193000DB69474A23F08053D3617B68DB69002B66
:1019400000F08180424B5B6803F00C03082B61D0F0
:101950007B68DB69022B46D13F4B00221A60FFF700
:10196000EBF8386108E0FFF7E7F802463B69D31A65
:10197000022B01D9032367E0354B1B6803F000738A
:10198000002BF0D17B681B6AB3F5803F08D1304B48
:101990005B6823F400327B689B682D4913434B60DE
:1019A0002B4B5B6823F474127B68196A7B685B6A53
:1019B0000B43274913434B60274B01221A60FFF763
:1019C000BBF8386108E0FFF7B7F802463B69D31A65
:1019D000022B01D9032337E01D4B1B6803F0007372
:1019E000002BF0D02FE01C4B00221A60FFF7A4F868
:1019F000386108E0FFF7A0F802463B69D31A022BD2
:101A000001D9032320E0124B1B6803F00073002B65
:101A1000F0D118E07B68DB69012B01D1012313E0D1
:101A20000B4B5B68FB60FB6803F480327B681B6ACE
:101A30009A4206D1FB6803F470127B685B6A9A4293
:101A400001D0012300E0002318461837BD4680BDB1
:101A500000100240007000406000424280B584B037
:101A600000AF786039607B68002B01D10123D0E0A2
:101A70006A4B1B6803F007033A689A4210D9674B18
:101A80001B6823F0070265493B6813430B60634BF7
:101A90001B6803F007033A689A4201D00123B8E0BB
:101AA0007B681B6803F00203002B20D07B681B6857
:101AB00003F00403002B05D0594B5B68584A43F4EC
:101AC000E06353607B681B6803F00803002B05D0BC
:101AD000534B5B68524A43F460535360504B5B680E
:101AE00023F0F0027B689B684D4913434B607B6891
:101AF0001B6803F00103002B40D07B685B68012B5F
:101B000007D1474B1B6803F40033002B15D1012389
:101B10007FE07B685B68022B07D1414B1B6803F0B9
:101B20000073002B09D1012373E03D4B1B6803F0C8
:101B30000203002B01D101236BE0394B5B6823F0DA
:101B400003027B685B68364913434B60FEF7F4FF82
:101B5000F8600AE0FEF7F0FF0246FB68D31A41F294
:101B60008832934201D9032353E02D4B5B6803F085
:101B70000C027B685B689B009A42EBD1274B1B6889
:101B800003F007033A689A4210D2244B1B6823F0F3
:101B9000070222493B6813430B60204B1B6803F08C
:101BA00007033A689A4201D0012332E07B681B6840
:101BB00003F00403002B08D0194B5B6823F4E062A8
:101BC0007B68DB68164913434B607B681B6803F036
:101BD0000803002B09D0124B5B6823F460527B682A
:101BE0001B69DB000E4913434B6000F021F80246ED
:101BF0000B4B5B681B0903F00F030A49CB5C22FA0D
:101C000003F3094A1360094B1B681846FEF752FF9D
:101C1000002318461037BD4680BD00BF002002409B
:101C2000001002405462000818000020000000204C
:101C300090B48AB000AF2A4B3C1D0FCB84E80F0054
:101C400040F201233B800023FB610023BB610023A2
:101C50007B6200237B6100233B62224B5B68FB615C
:101C6000FB6903F00C03042B02D0082B03D02DE0FA
:101C70001D4B3B622DE0FB699B0C03F00F0307F14A
:101C80002802134413F8243C7B61FB6903F480337E
:101C9000002B13D0134B5B685B0C03F0010307F1BF
:101CA0002802134413F8283CBB617B690E4A02FBEF
:101CB00003F2BB69B2FBF3F37B6204E07B690B4A7E
:101CC00002FB03F37B627B6A3B6202E0064B3B62F2
:101CD00000BF3B6A18462837BD4690BC704700BF1E
:101CE000B06100080010024000127A0000093D00B7
:101CF00080B400AF024B1B681846BD4680BC7047DD
:101D00001800002080B500AFFFF7F2FF0246054B38
:101D10005B681B0A03F007030349CB5C22FA03F359
:101D2000184680BD001002406462000880B500AF14
:101D3000FFF7DEFF0246054B5B68DB0A03F0070393
:101D40000349CB5C22FA03F3184680BD0010024021
:101D50006462000880B485B000AF78600A4B1B68ED
:101D60000A4AA2FB03235B0A7A6802FB03F3FB60C7
:101D700000BFFB685A1EFA60002BF9D100BF00BFFC
:101D80001437BD4680BC704718000020D34D621048
:101D900080B586B000AF786000233B610023FB6014
:101DA0007B681B6803F00103002B7DD00023FB75CB
:101DB0004F4BDB6903F08053002B0DD14C4BDB699B
:101DC0004B4A43F08053D361494BDB6903F08053A6
:101DD000BB60BB680123FB75464B1B6803F4807333
:101DE000002B18D1434B1B68424A43F480731360A5
:101DF000FEF7A2FE386108E0FEF79EFE02463B6950
:101E0000D31A642B01D903236DE03A4B1B6803F40A
:101E10008073002BF0D0364B1B6A03F44073FB60D9
:101E2000FB68002B2ED07B685B6803F44073FA6874
:101E30009A4227D02E4B1B6A23F44073FB602E4B33
:101E400001221A602C4B00221A60294AFB68136297
:101E5000FB6803F00103002B14D0FEF76DFE386120
:101E60000AE0FEF769FE02463B69D31A41F2883266
:101E7000934201D9032336E01D4B1B6A03F0020392
:101E8000002BEED01A4B1B6A23F440727B685B6810
:101E9000174913430B62FB7D012B05D1144BDB6902
:101EA000134A23F08053D3617B681B6803F002035D
:101EB000002B08D00E4B5B6823F440427B689B6884
:101EC0000B4913434B607B681B6803F01003002B26
:101ED00008D0074B5B6823F480027B68DB68044909
:101EE00013434B60002318461837BD4680BD00BF22
:101EF00000100240007000404004424280B582B0B1
:101F000000AF78607B68002B01D1012353E07B6830
:101F100000229A627B6893F85130DBB2002B06D125
:101F20007B68002283F85020786801F02BFE7B68E4
:101F3000022283F851207B681B681A687B681B6843
:101F400022F040021A607B685A687B689B681A43DB
:101F50007B68DB681A437B681B691A437B685B6993
:101F60001A437B689B6903F400731A437B68DB693F
:101F70001A437B681B6A42EA03017B689A6A7B68A2
:101F80001B680A431A607B689B691A0C7B681B6894
:101F900002F004025A607B681B68DA697B681B6880
:101FA00022F40062DA617B6800225A657B680122B4
:101FB00083F85120002318460837BD4680BD80B500
:101FC00088B002AFF860B9603B601346FB80002325
:101FD000FB75FB685B68B3F5827F12D1FB689B6879
:101FE000002B0ED1FB68042283F85120FA883B684D
:101FF00000931346BA68B968F86800F0E9F8034638
:10200000E2E0FB6893F85030012B01D10223DBE0C2
:10201000FB68012283F85020FEF78EFD3861FB68D3
:1020200093F85130DBB2012B02D00223FB75C2E0E2
:10203000BB68002B02D0FB88002B02D10123FB756B
:10204000B9E0FB68042283F85120FB6800225A653E
:10205000FB68BA689A63FB68FA889A87FB68FA8813
:10206000DA87FB6800221A63FB6800229A86FB6805
:102070000022DA86FB6800221A64FB6800225A6498
:10208000FB689B68B3F5004F07D1FB681B681A68B3
:10209000FB681B6822F480421A60FB681B681B689F
:1020A00003F04003402B07D0FB681B681A68FB68ED
:1020B0001B6842F040021A60FB68DB68002B62D1AB
:1020C0002EE0FB681B689B6803F00103012B15D110
:1020D000FB681B6803F10C02FB689B6B1278D2B2A1
:1020E0001A70FB689B6B5A1CFB689A63FB68DB8F5A
:1020F0009BB2013B9AB2FB68DA8711E0FEF71CFD48
:1021000002463B69D31A3A689A4203D83B68B3F156
:10211000FF3F02D13B68002B02D10323FB754AE04D
:10212000FB68DB8F9BB2002BCBD131E0FB681B68D7
:102130009B6803F00103012B13D1FB681B68DA686D
:10214000FB689B6B92B21A80FB689B6B9A1CFB68C6
:102150009A63FB68DB8F9BB2013B9AB2FB68DA871C
:1021600011E0FEF7E9FC02463B69D31A3A689A424D
:1021700003D83B68B3F1FF3F02D13B68002B02D18B
:102180000323FB7517E0FB68DB8F9BB2002BCDD1DF
:102190003A693968F86800F027FA0346002B02D044
:1021A000FB6820225A65FB685B6D002B02D001237F
:1021B000FB7500E000BFFB68012283F85120FB683B
:1021C000002283F85020FB7D18461837BD4680BD9D
:1021D00080B58CB000AFF860B9607A607B80012375
:1021E000FB62002387F82B30FB6893F85030012BFB
:1021F00001D102238AE1FB68012283F85020FEF717
:102200009BFC7862FB6893F8513087F82330FB68B9
:102210005B68FB617B887B8397F82330012B0FD0B1
:10222000FB69B3F5827F07D1FB689B68002B03D164
:1022300097F82330042B03D0022387F82B305BE17F
:10224000BB68002B05D07B68002B02D07B88002B5D
:1022500003D1012387F82B304EE1FB6893F851300E
:10226000DBB2042B03D0FB68052283F85120FB6806
:1022700000225A65FB687A689A63FB687A88DA8775
:10228000FB687A889A87FB68BA681A63FB687A8861
:10229000DA86FB687A889A86FB6800221A64FB68F3
:1022A00000225A64FB681B681B6803F04003402B44
:1022B00007D0FB681B681A68FB681B6842F0400285
:1022C0001A60FB68DB68B3F5006F78D1FB685B6868
:1022D000002B02D07B8B012B66D1FB681B6B1A880D
:1022E000FB681B68DA60FB681B6B9A1CFB681A634F
:1022F000FB68DB8E9BB2013B9AB2FB68DA8653E047
:10230000FB681B689B6803F00203022B1BD1FB6870
:10231000DB8E9BB2002B16D0FB6A012B13D1FB681E
:102320001B6B1A88FB681B68DA60FB681B6B9A1CC6
:10233000FB681A63FB68DB8E9BB2013B9AB2FB68B9
:10234000DA860023FB62FB681B689B6803F00103CD
:10235000012B19D1FB68DB8F9BB2002B14D0FB68DB
:102360001B68DA68FB689B6B92B21A80FB689B6BF8
:102370009A1CFB689A63FB68DB8F9BB2013B9AB2A5
:10238000FB68DA870123FB62FEF7D6FB02467B6A15
:10239000D31ABA6B9A4207D8BB6BB3F1FF3F03D095
:1023A000032387F82B30A7E0FB68DB8E9BB2002B62
:1023B000A6D1FB68DB8F9BB2002BA1D17CE0FB6830
:1023C0005B68002B02D07B8B012B6BD1FB681A6BF7
:1023D000FB681B680C3312781A70FB681B6B5A1C65
:1023E000FB681A63FB68DB8E9BB2013B9AB2FB6809
:1023F000DA8657E0FB681B689B6803F00203022B38
:102400001CD1FB68DB8E9BB2002B17D0FB6A012B23
:1024100014D1FB681A6BFB681B680C3312781A70B6
:10242000FB681B6B5A1CFB681A63FB68DB8E9BB254
:10243000013B9AB2FB68DA860023FB62FB681B68EB
:102440009B6803F00103012B19D1FB68DB8F9BB262
:10245000002B14D0FB681B68DA68FB689B6BD2B258
:102460001A70FB689B6B5A1CFB689A63FB68DB8FD6
:102470009BB2013B9AB2FB68DA870123FB62FEF74D
:102480005BFB02467B6AD31ABA6B9A4203D8BB6BDA
:10249000B3F1FF3F02D1BB6B002B03D1032387F8BD
:1024A0002B3029E0FB68DB8E9BB2002BA2D1FB68AE
:1024B000DB8F9BB2002B9DD17A6AB96BF86800F074
:1024C000E5F80346002B06D0012387F82B30FB6884
:1024D00020225A6510E0FB689B68002B0BD100237B
:1024E0007B61FB681B68DB687B61FB681B689B6822
:1024F0007B617B6900E000BFFB68012283F851200B
:10250000FB68002283F8502097F82B3018463037AC
:10251000BD4680BD80B584B000AFF860B9603B6057
:102520001346FB714CE03B68B3F1FF3F48D0FEF728
:1025300003FB0246BB69D31A3A689A4202D93B6848
:10254000002B3DD1FB681B685A68FB681B6822F0B2
:10255000E0025A60FB685B68B3F5827F11D1FB68CB
:102560009B68B3F5004F04D0FB689B68B3F5806FA0
:1025700007D1FB681B681A68FB681B6822F04002E1
:102580001A60FB689B6AB3F5005F0FD1FB681B689C
:102590001A68FB681B6822F400521A60FB681B680B
:1025A0001A68FB681B6842F400521A60FB6801223B
:1025B00083F85120FB68002283F8502003230FE0AA
:1025C000FB681B689A68BB681340BA689A420CBFE4
:1025D00001230023DBB21A46FB799A42A3D10023E0
:1025E00018461037BD4680BD80B586B002AFF86092
:1025F000B9607A60FB685B68B3F5827F11D1FB68D4
:102600009B68B3F5004F04D0FB689B68B3F5806FFF
:1026100007D1FB681B681A68FB681B6822F0400240
:102620001A60FB685B68B3F5827F17D1FB689B6813
:10263000B3F5806F12D17B680093BB680022012143
:10264000F868FFF767FF0346002B1AD0FB685B6D45
:1026500043F02002FB685A65032313E07B68009374
:10266000BB6800228021F868FFF754FF0346002B67
:1026700007D0FB685B6D43F02002FB685A650323BB
:1026800000E0002318461037BD4680BD80B586B0F7
:1026900002AFF860B9607A607B680093BB68002283
:1026A0008021F868FFF736FF0346002B07D0FB6850
:1026B0005B6D43F02002FB685A65032300E00023B2
:1026C00018461037BD4680BD80B582B000AF786037
:1026D0007B68002B01D101231DE07B6893F83D301E
:1026E000DBB2002B06D17B68002283F83C2078689F
:1026F00001F092FA7B68022283F83D207B681A6819
:102700007B6804331946104600F01CFA7B680122EE
:1027100083F83D20002318460837BD4680BD80B4AD
:1027200085B000AF78607B681B68DA687B681B68DF
:1027300042F00102DA607B681B689B6803F00703C4
:10274000FB60FB68062B07D07B681B681A687B68F8
:102750001B6842F001021A60002318461437BD4678
:1027600080BC704780B582B000AF78607B681B6822
:102770001B6903F00203022B22D17B681B68DB6814
:1027800003F00203022B1BD17B681B686FF002026F
:102790001A617B6801221A777B681B689B6903F0CA
:1027A0000303002B03D0786800F0B1F905E07868E6
:1027B00000F0A4F9786800F0B3F97B6800221A777A
:1027C0007B681B681B6903F00403042B22D17B6820
:1027D0001B68DB6803F00403042B1BD17B681B68B8
:1027E0006FF004021A617B6802221A777B681B680B
:1027F0009B6903F44073002B03D0786800F087F9DD
:1028000005E0786800F07AF9786800F089F97B686B
:1028100000221A777B681B681B6903F00803082BEA
:1028200022D17B681B68DB6803F00803082B1BD1EF
:102830007B681B686FF008021A617B6804221A77B4
:102840007B681B68DB6903F00303002B03D0786807
:1028500000F05DF905E0786800F050F9786800F064
:102860005FF97B6800221A777B681B681B6903F09D
:102870001003102B22D17B681B68DB6803F0100368
:10288000102B1BD17B681B686FF010021A617B68EC
:1028900008221A777B681B68DB6903F44073002BFE
:1028A00003D0786800F033F905E0786800F026F985
:1028B000786800F035F97B6800221A777B681B681E
:1028C0001B6903F00103012B0ED17B681B68DB68D9
:1028D00003F00103012B07D17B681B686FF0010235
:1028E0001A61786800F09CFD7B681B681B6903F027
:1028F0008003802B0ED17B681B68DB6803F08003AC
:10290000802B07D17B681B686FF080021A617868A2
:1029100000F05DFA7B681B681B6903F04003402BE5
:102920000ED17B681B68DB6803F04003402B07D1A6
:102930007B681B686FF040021A61786800F0F9F854
:102940007B681B681B6903F02003202B0ED17B687A
:102950001B68DB6803F02003202B07D17B681B6812
:102960006FF020021A61786800F028FA00BF08377B
:10297000BD4680BD80B584B000AF786039607B68AB
:1029800093F83C30012B01D10223B3E07B68012294
:1029900083F83C207B68022283F83D207B681B681B
:1029A0009B68FB60FB6823F07703FB60FB6823F404
:1029B0007F43FB607B681B68FA689A603B681B6812
:1029C000B3F5005F3ED0B3F5005F00F28780B3F54A
:1029D000805F00F08580B3F5805F7FD8702B1AD0C0
:1029E000702B7BD8602B50D0602B77D8502B3CD0ED
:1029F000502B73D8402B58D0402B6FD8302B64D03D
:102A0000302B6BD8202B60D0202B67D8002B5CD0CC
:102A1000102B5AD062E07B6818683B6899683B6865
:102A20005A683B68DB6800F066F97B681B689B6846
:102A3000FB60FB6843F07703FB607B681B68FA6808
:102A40009A604EE07B6818683B6899683B685A68F2
:102A50003B68DB6800F04FF97B681B689A687B680D
:102A60001B6842F480429A603BE07B6818683B68D0
:102A700059683B68DB681A4600F0C6F87B681B683B
:102A80005021184600F01DF92BE07B6818683B6860
:102A900059683B68DB681A4600F0E4F87B681B68FD
:102AA0006021184600F00DF91BE07B6818683B6850
:102AB00059683B68DB681A4600F0A6F87B681B681B
:102AC0004021184600F0FDF80BE07B681A683B686F
:102AD0001B681946104600F0F4F802E000BF00E061
:102AE00000BF7B68012283F83D207B68002283F8C9
:102AF0003C20002318461037BD4680BD80B483B00B
:102B000000AF786000BF0C37BD4680BC704780B412
:102B100083B000AF786000BF0C37BD4680BC704703
:102B200080B483B000AF786000BF0C37BD4680BC76
:102B3000704780B483B000AF786000BF0C37BD46EB
:102B400080BC704780B485B000AF786039607B6826
:102B50001B68FB607B68294A93420BD07B68B3F10A
:102B6000804F07D07B68264A934203D07B68254A72
:102B7000934208D1FB6823F07003FB603B685B68FD
:102B8000FA681343FB607B681C4A93420BD07B6856
:102B9000B3F1804F07D07B68194A934203D07B681A
:102BA000184A934208D1FB6823F44073FB603B68EA
:102BB000DB68FA681343FB60FB6823F080023B6824
:102BC0005B691343FB607B68FA681A603B689A682C
:102BD0007B68DA623B681A687B689A627B68074A9E
:102BE000934203D13B681A697B681A637B680122B0
:102BF0005A6100BF1437BD4680BC7047002C0140AD
:102C0000000400400008004080B487B000AFF860C6
:102C1000B9607A60FB681B6A7B61FB681B6A23F002
:102C20000102FB681A62FB689B693B613B6923F008
:102C3000F0033B617B681B013A6913433B617B698D
:102C400023F00A037B617A69BB6813437B61FB68ED
:102C50003A699A61FB687A691A6200BF1C37BD46FF
:102C600080BC704780B487B000AFF860B9607A600C
:102C7000FB681B6A23F01002FB681A62FB689B6901
:102C80007B61FB681B6A3B617B6923F470437B615A
:102C90007B681B037A6913437B613B6923F0A003C4
:102CA0003B61BB681B013A6913433B61FB687A696E
:102CB0009A61FB683A691A6200BF1C37BD4680BC46
:102CC000704780B485B000AF786039607B689B68DE
:102CD000FB60FB6823F07003FB603A68FB681343FA
:102CE00043F00703FB607B68FA689A6000BF143703
:102CF000BD4680BC704780B487B000AFF860B96053
:102D00007A603B60FB689B687B617B6923F47F434F
:102D10007B613B681A027B681A43BB6813437A697C
:102D200013437B61FB687A699A6000BF1C37BD461C
:102D300080BC704780B485B000AF786039607B6834
:102D400093F83C30012B01D1022332E07B68012251
:102D500083F83C207B68022283F83D207B681B6857
:102D60005B68FB607B681B689B68BB60FB6823F04B
:102D70007003FB603B681B68FA681343FB60BB6829
:102D800023F08003BB603B685B68BA681343BB6099
:102D90007B681B68FA685A607B681B68BA689A602F
:102DA0007B68012283F83D207B68002283F83C2069
:102DB000002318461437BD4680BC704780B483B0EA
:102DC00000AF786000BF0C37BD4680BC704780B450
:102DD00083B000AF786000BF0C37BD4680BC704741
:102DE00080B582B000AF78607B68002B01D10123F1
:102DF0003FE07B6893F83930DBB2002B06D17B686B
:102E0000002283F83820786800F02CFF7B682422A9
:102E100083F839207B681B68DA687B681B6822F4BA
:102E20000052DA60786800F07BF97B681B681A69E9
:102E30007B681B6822F490421A617B681B685A69A0
:102E40007B681B6822F02A025A617B681B68DA687B
:102E50007B681B6842F40052DA607B680022DA6308
:102E60007B68202283F839207B68202283F83A206F
:102E7000002318460837BD4680BD80B584B000AF3A
:102E8000F8600B467A60FB72FB68002B01D10123CE
:102E90005FE0FB6893F83930DBB2002B06D1FB68AA
:102EA000002283F83820F86800F0DCFEFB6824225A
:102EB00083F83920FB681B68DA68FB681B6822F41A
:102EC0000052DA60F86800F02BF9FB681B681A6999
:102ED000FB681B6822F490421A61FB681B685A6900
:102EE000FB681B6822F02A025A61FB681B681A699A
:102EF000FB681B6822F00F021A61FB681B681969E6
:102F0000FA7AFB681B680A431A61FB681B68DA6877
:102F1000FB681B6822F40062DA60FB681B68D968F2
:102F2000FB681B687A680A43DA60FB681B68DA682A
:102F3000FB681B6842F40052DA60FB680022DA6327
:102F4000FB68202283F83920FB68202283F83A208E
:102F5000002318461037BD4680BD80B588B002AF4B
:102F6000F860B9603B601346FB8000237B61FB681F
:102F700093F83930DBB2202B40F08380BB68002B04
:102F800002D0FB88002B01D101237BE0FB6893F882
:102F90003830012B01D1022374E0FB68012283F851
:102FA0003820FB680022DA63FB68212283F839208D
:102FB000FDF7C2FD7861FB68FA889A84FB68FA889D
:102FC000DA8442E0FB68DB8C9BB2013B9AB2FB687F
:102FD000DA84FB689B68B3F5805F22D13B6800937D
:102FE0007B6900228021F86800F050F80346002B2E
:102FF00001D0032346E0BB683B613B691B881A464E
:10300000FB681B68C2F308025A60FB681B69002B4F
:1030100003D1BB680233BB6017E0BB680133BB6000
:1030200013E03B6800937B6900228021F86800F080
:103030002DF80346002B01D0032323E0BB685A1C64
:10304000BA601A78FB681B685A60FB68DB8C9BB21D
:10305000002BB7D13B6800937B6900224021F868C0
:1030600000F014F80346002B01D003230AE0FB68AC
:10307000202283F83920FB68002283F838200023BF
:1030800000E0022318461837BD4680BD80B584B0E5
:1030900000AFF860B9603B601346FB712CE0BB6980
:1030A000B3F1FF3F28D0BB69002B07D0FDF744FDEB
:1030B00002463B68D31ABA699A421DD2FB681B6864
:1030C000DA68FB681B6822F4D072DA60FB681B6860
:1030D0005A69FB681B6822F001025A61FB682022D2
:1030E00083F83920FB68202283F83A20FB6800220D
:1030F00083F8382003230FE0FB681B681A68BB685D
:103100001340BA689A420CBF01230023DBB21A466F
:10311000FB799A42C3D0002318461037BD4680BDC4
:1031200080B584B000AF78607B681B681B6923F4AE
:1031300040517B68DA687B681B680A431A617B68C8
:103140009A687B681B691A437B685B691343FB6061
:103150007B681B68DB6823F4B05323F00C037A68A8
:103160001268F9680B43D3607B681B685B6923F4C2
:1031700040717B689A697B681B680A435A617B6867
:103180001B68524A93424ED1FEF7D0FDB860BA6830
:1031900013469B0013449A001A447B685B689B00AB
:1031A000B2FBF3F34A4AA2FB03235B091901BA6895
:1031B00013469B0013449A001A447B685B689B008B
:1031C000B2FBF3F2424BA3FB02035B09642000FB5A
:1031D00003F3D31A1B0132333D4AA2FB03235B09DD
:1031E00003F0F0031944BA6813469B0013449A0095
:1031F0001A447B685B689B00B2FBF3F2344BA3FB81
:1032000002035B09642000FB03F3D31A1B01323372
:103210002F4AA2FB03235B0903F00F027B681B68A4
:103220000A449A604DE0FEF76DFDB860BA68134637
:103230009B0013449A001A447B685B689B00B2FBB6
:10324000F3F3234AA2FB03235B091901BA6813466F
:103250009B0013449A001A447B685B689B00B2FB96
:10326000F3F21B4BA3FB02035B09642000FB03F397
:10327000D31A1B013233164AA2FB03235B0903F066
:10328000F0031944BA6813469B0013449A001A4489
:103290007B685B689B00B2FBF3F20D4BA3FB020360
:1032A0005B09642000FB03F3D31A1B013233084A85
:1032B000A2FB03235B0903F00F027B681B680A442F
:1032C0009A6000BF1037BD4680BD00BF0038014086
:1032D0001F85EB5180B582B000AF00224FF4005142
:1032E0001148FEF70AF9B91D4FF47A7302220F480C
:1032F000FEF765FEFB881B021AB2FB881B0A9BB215
:103300001BB213431BB29BB2FB8001224FF400514E
:103310000548FEF7F2F8FB88DB089BB29B089BB2DE
:1033200018460837BD4680BD000C01403C02002015
:1033300080B584B000AF0346FB80FDF7FDFBF8606D
:10334000FB88B3F5805F25D1294B1B68FA68D31A37
:10335000322293421AD94FF480512648FEF7B6F82C
:103360000346012B09D1244B1968244B1B689AB2E0
:1033700064232348FFF7F1FD08E0224B1968224B34
:103380001B689AB264231E48FFF7E7FD184AFB68E2
:10339000136028E0FB88B3F5007F24D11B4B1B682A
:1033A000FA68D31A322293421AD9FB881946114877
:1033B000FEF78CF80346012B09D1154B1968154B04
:1033C0001B689AB264230E48FFF7C7FD08E0124B52
:1033D0001968124B1B689AB264230948FFF7BDFDB8
:1033E0000A4AFB68136000BF1037BD4680BD00BFAE
:1033F000A4030020000C01400800002094030020DA
:10340000140300200C00002098030020A8030020D3
:10341000100000209C03002014000020A0030020C6
:1034200080B582B000AF78607B68064A934205D1D0
:103430006423032204490548FFF78FFD00BF0837C6
:10344000BD4680BD940200200462000814030020E1
:1034500080B5A6B000AFFDF717FB00F08FF800F0C5
:1034600031FA00F0E7F800F023F900F0ABF900F0D2
:10347000D3F900F0FBF900F051F9314B7B670823D9
:103480003B674FF48053BB672E4BFB671023BB6633
:103490002B4BFB662C4BC7F880302C4B1B68184617
:1034A000FCF736FE03462A4A13602A4B1B6818466F
:1034B000FCF72EFE0346284A1360284B1B6818466B
:1034C000FCF726FE0346264A1360264B1B68184667
:1034D000FCF71EFE0346244A1360244BC7F89430C1
:1034E000234BC7F89030234BC7F88C30D7F89000A7
:1034F000FCF70EFE03469AB24FF47A73D7F8901099
:10350000D7F89400FFF729FDFFF7E4FEC7F888001D
:10351000381DD7F88830184A642101F0E7F90346CE
:10352000C7F88430D7F884309AB2391D6423D7F8AD
:103530009400FFF712FD4FF48270FDF707FBE3E7FD
:10354000000C0140000801403C020020080000205F
:10355000940300200C00002098030020100000209D
:103560009C03002014000020A0030020140300206E
:10357000086200082C6200085062000880B594B010
:1035800000AF07F1280328220021184600F046FD6D
:1035900007F1140300221A605A609A60DA601A6117
:1035A0003B1D00221A605A609A60DA600123BB62F8
:1035B0004FF48033FB6200233B630123BB63022390
:1035C0007B644FF48033BB644FF4E013FB6407F17A
:1035D00028031846FDF7C2FF0346002B01D000F078
:1035E00045FA0F237B610223BB610023FB614FF48B
:1035F00080633B6200237B6207F1140302211846BB
:10360000FEF72CFA0346002B01D000F02FFA02231C
:103610007B604FF44043FB603B1D1846FEF7B8FB50
:103620000346002B01D000F021FA00BF5037BD4601
:1036300080BD000080B584B000AF3B1D00221A6041
:103640005A609A60184B194A1A60174B00229A6008
:10365000154B00221A73144B00221A75124B4FF4AB
:103660006022DA61104B00225A600F4B01221A616E
:103670000D48FDF78FFA0346002B01D000F0F6F954
:1036800000237B600123BB600023FB603B1D1946C8
:103690000548FDF757FB0346002B01D000F0E6F983
:1036A00000BF1037BD4680BD0C0200200024014041
:1036B00080B500AF174B184A1A60164B4FF4827250
:1036C0005A60144B00229A60124B0022DA60114BB0
:1036D00000221A610F4B00225A610E4B4FF4007208
:1036E0009A610C4B1022DA610A4B00221A62094BD4
:1036F00000225A62074B00229A62064B0A22DA62C3
:103700000448FEF7FBFB0346002B01D000F0AEF9A6
:1037100000BF80BD3C0200200030014080B586B073
:1037200000AF07F1080300221A605A609A60DA605D
:103730003B4600221A605A60204B214A1A601F4BF8
:1037400048F69F425A601D4B00229A601B4B40F284
:10375000CF72DA60194B00221A61184B00225A61AD
:10376000164B80229A611548FEF7AEFF0346002BE8
:1037700001D000F07BF94FF48053BB6007F10803E0
:1037800019460E48FFF7F6F80346002B01D000F06B
:103790006DF940233B6000237B603B461946074898
:1037A000FFF7C8FA0346002B01D000F05FF9034889
:1037B000FEF7B5FF00BF1837BD4680BD940200205C
:1037C000002C014080B500AF114B124A1A60104B1B
:1037D0004FF4E1325A600E4B00229A600C4B0022EB
:1037E000DA600B4B00221A61094B0C225A61084B1C
:1037F00000229A61064B0022DA610548FFF7F0FAD1
:103800000346002B01D000F031F900BF80BD00BF9E
:10381000D40200200038014080B500AF104B114A9F
:103820001A600F4B104A5A600D4B00229A600C4BE5
:103830000022DA600A4B00221A61094B0C225A61FD
:10384000074B00229A61064B0022DA610448FFF719
:10385000C7FA0346002B01D000F008F900BF80BD75
:10386000140300200044004080841E0080B500AF97
:10387000114B124A1A60104B114A5A600E4B00222B
:103880009A600D4B0022DA600B4B00221A610A4B42
:103890000C225A61084B00229A61074B0022DA6120
:1038A000002200210448FFF7E8FA0346002B01D06C
:1038B00000F0DCF800BF80BD540300200048004049
:1038C00080841E0080B588B000AF07F1100300228D
:1038D0001A605A609A60DA605E4B9B695D4A43F0F9
:1038E000100393615B4B9B6903F01003FB60FB6863
:1038F000584B9B69574A43F020039361554B9B6992
:1039000003F02003BB60BB68524B9B69514A43F0F4
:10391000040393614F4B9B6903F004037B607B6856
:103920004C4B9B694B4A43F008039361494B9B699D
:1039300003F008033B603B6800224FF40051464807
:10394000FDF7DBFD01224FF404514448FDF7D5FD9E
:1039500001224FF410414248FDF7CFFD0022102113
:103960003E48FDF7CAFD4FF400533B6101237B61E4
:103970000023BB610323FB6107F11003194636489E
:10398000FDF720FC4CF2EC033B61364B7B610223DC
:10399000BB6107F1100319463048FDF713FC4FF4E3
:1039A00090533B61304B7B610223BB6107F11003F5
:1039B00019462A48FDF706FC4FF400533B610123EA
:1039C0007B610223BB610323FB6107F110031946EE
:1039D0002248FDF7F7FB4FF410633B61214B7B61FD
:1039E0000223BB6107F1100319461D48FDF7EAFBEE
:1039F0004FF410433B6101237B610023BB61032330
:103A0000FB6107F1100319461548FDF7DBFB4FF486
:103A100088733B6101237B610023BB610323FB614E
:103A200007F1100319460D48FDF7CCFB00220021D9
:103A30001720FDF790FB1720FDF7A9FB00220021BE
:103A40002820FDF788FB2820FDF7A1FB00BF2037C9
:103A5000BD4680BD0010024000100140000C014036
:103A600000080140000011100000311080B400AFC8
:103A700000BFBD4680BC704780B485B000AF154B19
:103A80009B69144A43F001039361124B9B6903F055
:103A90000103BB60BB680F4BDB690E4A43F08053E8
:103AA000D3610C4BDB6903F080537B607B680A4B6E
:103AB0005B68FB60FB6823F0E063FB60FB6843F03E
:103AC0000073FB60044AFB68536000BF1437BD46B7
:103AD00080BC7047001002400000014080B58AB0F1
:103AE00000AF786007F1180300221A605A609A60EC
:103AF000DA607B681B681F4A934237D11E4B9B6973
:103B00001D4A43F4007393611B4B9B6903F40073DC
:103B10007B617B69184B9B69174A43F004039361EF
:103B2000154B9B6903F004033B613B69124B9B6996
:103B3000114A43F0080393610F4B9B6903F008039C
:103B4000FB60FB681323BB610323FB6107F11803D0
:103B500019460A48FDF736FB0323BB610323FB61CB
:103B600007F1180319460648FDF72CFB00BF28375C
:103B7000BD4680BD00240140001002400008014005
:103B8000000C014080B588B000AF786007F11003E9
:103B900000221A605A609A60DA607B681B681B4AD0
:103BA00093422FD11A4B9B69194A43F48053936176
:103BB000174B9B6903F48053FB60FB68144B9B69B4
:103BC000134A43F004039361114B9B6903F0040310
:103BD000BB60BB68A0233B6102237B610323FB61C5
:103BE00007F1100319460B48FDF7ECFA40233B613F
:103BF00000237B610023BB6107F1100319460548D0
:103C0000FDF7E0FA00BF2037BD4680BD003001401F
:103C1000001002400008014080B584B000AF786019
:103C20007B681B680D4A934213D10D4B9B690C4A6C
:103C300043F4006393610A4B9B6903F40063FB60E8
:103C4000FB68002200211920FDF785FA1920FDF7F5
:103C50009EFA00BF1037BD4680BD00BF002C01405A
:103C60000010024080B58CB000AF786007F12003EF
:103C700000221A605A609A60DA607B681B68534AB7
:103C8000934232D1524B9B69514A43F48043936132
:103C90004F4B9B6903F48043FB61FB694C4B9B6971
:103CA0004B4A43F004039361494B9B6903F00403BF
:103CB000BB61BB694FF400733B6202237B62032349
:103CC000FB6207F1200319464248FDF77BFA4FF4E7
:103CD00080633B6200237B620023BB6207F1200309
:103CE00019463C48FDF76EFA6CE07B681B683A4A5F
:103CF000934230D1364BDB69354A43F40033D3610C
:103D0000334BDB6903F400337B617B69304B9B6988
:103D10002F4A43F0040393612D4B9B6903F0040386
:103D20003B613B6904233B6202237B620323FB620A
:103D300007F1200319462748FDF744FA08233B62A0
:103D400000237B620023BB6207F120031946214850
:103D5000FDF738FA36E07B681B68204A934231D180
:103D60001B4BDB691A4A43F48023D361184BDB6990
:103D700003F48023FB60FB68154B9B69144A43F0F6
:103D800008039361124B9B6903F00803BB60BB6897
:103D90004FF480633B6202237B620323FB6207F1E3
:103DA000200319460E48FDF70DFA4FF400633B62FD
:103DB00000237B620023BB6207F1200319460848F9
:103DC000FDF700FA00BF3037BD4680BD0038014026
:103DD000001002400008014000440040004800403C
:103DE000000C014080B400AF00BFBD4680BC7047EE
:103DF00080B400AFFEE780B400AFFEE780B400AF50
:103E0000FEE780B400AFFEE780B400AF00BFBD4660
:103E100080BC704780B400AF00BFBD4680BC704717
:103E200080B400AF00BFBD4680BC704780B500AF16
:103E3000FCF770FE00BF80BD80B500AF2020FDF70D
:103E400075FB4020FDF772FB8020FDF76FFB4FF400
:103E50008070FDF76BFB4FF40070FDF767FB00BF50
:103E600080BD000080B500AF0248FEF77BFC00BFBC
:103E700080BD00BF9402002080B500AF4FF4006009
:103E8000FDF754FB4FF48050FDF750FB4FF480409A
:103E9000FDF74CFB4FF40040FDF748FB00BF80BD31
:103EA00080B584B000AF7860114B1B68002B02D145
:103EB0000F4B104A1A600E4B1B68FB600C4B1A68C4
:103EC0007B6813446A46934207D900F06FF80346B3
:103ED0000C221A604FF0FF3306E0054B1A687B682E
:103EE0001344034A1360FB6818461037BD4680BD73
:103EF000AC030020C803002080B400AF154B1B6842
:103F0000144A43F001031360124B5A681149124BD3
:103F100013404B600F4B1B680E4A23F0847323F44D
:103F2000803313600B4B1B680A4A23F48023136011
:103F3000084B5B68074A23F4FE035360054B4FF4BC
:103F40001F029A60054B4FF000629A6000BFBD46A9
:103F500080BC7047001002400000FFF800ED00E058
:103F6000002103E00B4B5B58435004310A480B4BD4
:103F700042189A42F6D30A4A02E0002342F8043B70
:103F8000084B9A42F9D3FFF7B7FF00F015F8FFF797
:103F90005FFA7047D064000800000020EC010020A8
:103FA000EC010020C8030020FEE70000014B186868
:103FB000704700BF1C00002070B500260C4D0D4C52
:103FC000641BA410A64209D102F0E4F800260A4DB1
:103FD0000A4C641BA410A64205D170BD55F8043BE1
:103FE00098470136EEE755F8043B98470136F2E76B
:103FF000C8640008C8640008C8640008CC640008ED
:104000000A44914200F1FF3300D1704710B511F816
:10401000014B914203F8014FF9D110BD0346024410
:10402000934200D1704703F8011BF9E7002B2DE9FB
:10403000F0471F46BBBF03F100431F4600232D235B
:1040400088B01446129A109D1370149BDDF84CA092
:1040500023F02008B8F1460F05D0B8F1450F00D184
:104060000135022300E0032307AA049206AACDE942
:1040700002A2CDE9003522463B4600F0F9FCB8F13A
:10408000470F064602D1119BDB0722D5B8F1460F38
:1040900006EB050910D13378302B0AD1002200231A
:1040A00020463946FCF760FC18B9C5F10105CAF88D
:1040B0000050DAF8003099440022002320463946A7
:1040C000FCF752FC08B1CDF81C903022079B4B4501
:1040D00007D33046079B159A9B1B136008B0BDE8B9
:1040E000F087591C07911A70F0E70346F7B50029CD
:1040F00003F8022BB6BF2D222B2249420929427018
:104100002BDD0DF10704A4460A2791FBF7F60A46BA
:10411000A64607FB1615632A05F13005314604F162
:10412000FF340EF8015CF0DC3031AEF1020504F82A
:10413000011C2946441C61450AD30DF10902A2EB7A
:104140000E02654588BF00221344181A03B0F0BD63
:1041500011F8012B04F8012FEDE730233031837083
:10416000C170031DF1E700002DE9F04F91B00C463E
:10417000DDF8688016461F46054601F04BFA0368D5
:1041800018460993FBF7C4FF00230E93D8F80030BC
:104190000A90073323F0070303F1080294F81890FC
:1041A000D4F800B0C8F80020D3E90023C4E91223F2
:1041B000D4E9128A2AF000430B934FF0FF324046B5
:1041C0009C4B0B99FCF702FC70BB4FF0FF32404652
:1041D000984B0B99FCF7DCFB30BB002200234046D8
:1041E0005146FCF7CBFB10B12D2384F84330924BA2
:1041F0009248B9F1470F94BF9846804603234FF089
:10420000000A23612BF0040323603346214628462D
:1042100000970FAA00F0D4F9013040F090804FF0E1
:10422000FF3011B0BDE8F08F42465346404651463C
:10423000FCF7CCFB48B1BAF1000FB8BF2D23804882
:10424000B8BF84F843307F4BD3E7636809F0DF01E0
:104250005A1C42D106236360002206920EAACDE9C1
:1042600004920DAA4BF4806303920DF13302CDE961
:1042700001322360636842460093284653460B91FF
:10428000FFF7D4FE0B99804647290D9908D1C81C29
:1042900002DB6368994240DDA9F102095FFA89F9FE
:1042A000B9F1650F1FD84A46013904F150000D914C
:1042B000FFF71BFF0E9A82461318012A236102DCC6
:1042C0002268D20701D5013323619DF83330002BDA
:1042D0009BD02D2384F8433097E74729BCD1002B8E
:1042E000BAD10123B7E7B9F1660F18D10029636885
:1042F0000BDD216113B92268D00702D501330B44CD
:1043000023614FF0000AA165DFE713B92268D207E5
:1043100001D50233F4E70123F2E74FF067090E9B62
:10432000994205DB23682161D807EAD54B1CE7E7F2
:104330000029CCBF0122C1F102021344E0E7236847
:104340005A0507D42369424631462846B84701300A
:104350002BD164E7B9F1650F40F2DD80D4E9120199
:1043600000220023FCF700FB002833D00123314654
:104370002846354AB84701303FF451AFDDE90D23F7
:104380009A4202DB2368D8070FD5DDE909233146BD
:104390002846B84701303FF442AF4FF0000804F11F
:1043A0001A090E9B013B434509DC23689B0700F17A
:1043B0000281E0680F9B9842B8BF184631E701239D
:1043C0004A4631462846B84701303FF428AF08F145
:1043D0000108E6E70D9B002B38DC01233146284617
:1043E000194AB84701303FF41AAFDDE90D231343F2
:1043F00002D12368D907D8D5DDE9092331462846FB
:10440000B84701303FF40BAF4FF0000904F11A0A2E
:104410000D9B5B424B4501DC0E9B94E7012352460A
:1044200031462846B84701303FF4F9AE09F1010999
:10443000EEE700BFFFFFEF7F6C62000870620008CC
:1044400078620008746200087C6200080E9AA36D0E
:104450009A42A8BF1A46002A914637DC4FF0000B5B
:1044600029EAE97904F11A02D4F858A0AAEB090361
:104470005B4533DCDDE90D239A423BDB2368DA0739
:1044800038D40E9A0D99A2EB0A03A2EB01099945C3
:10449000A8BF9946B9F1000F34DC4FF0000829EAB3
:1044A000E97904F11A0ADDE90D239B1AA3EB09034C
:1044B00043457FF77AAF0123524631462846B84735
:1044C00001303FF4ACAE08F10108ECE71346314689
:1044D00042462846B8470130C0D1A0E60123314604
:1044E00028460B92B84701303FF499AE0B9A0BF176
:1044F000010BB9E73146DDE909232846B847013009
:10450000BFD18CE64B463146284608EB0A02B84735
:104510000130C2D183E60E9A012A01DCDB0737D5D0
:104520000123424631462846B84701303FF477AE72
:10453000DDE9092331462846B84701303FF46FAE24
:10454000D4E9120100220023FCF70EFAD8B90E9B21
:1045500008F10102013B31462846B84701300ED12F
:104560005DE601234A4631462846B84701303FF40C
:1045700056AE08F101080E9B013B4345F1DC534662
:1045800004F15002E0E64FF0000804F11A09F2E7E6
:1045900001234246DFE701234A4631462846B84711
:1045A00001303FF43CAE08F10108E3680F995B1A53
:1045B0004345F0DCFDE64FF0000804F11909F4E78B
:1045C0002DE9F047164699468A680B6907469342DB
:1045D000B8BF1346336091F843200C46DDF82080C5
:1045E0000AB1013333602368990642BF336802334E
:1045F0003360256815F0060506D104F1190AE36851
:1046000032689B1AAB4228DC94F84320131E2268C0
:1046100018BF012392062DD44946384604F14302BF
:10462000C047013020D02368E56803F00603042B5F
:1046300018BF002532684FF00006A36808BFAD1A06
:10464000226908BF25EAE5759342C4BF9B1AED189D
:104650001A34B5421AD1002008E0012352464946D7
:104660003846C047013003D14FF0FF30BDE8F08736
:104670000135C4E73020E11881F843005A1C94F852
:1046800045102244023382F84310C5E70123224635
:1046900049463846C0470130E6D00136D9E7000028
:1046A0002DE9FF470C46277E9146782F80469A4693
:1046B0000C9904F1430207D8622F0AD8002F00F0AA
:1046C000D980582F00F0A48004F1420684F842708B
:1046D0003AE0A7F16303152BF6D801A050F823F0B8
:1046E000394700084D470008C9460008C946000878
:1046F000C9460008C94600084D470008C9460008D9
:10470000C9460008C9460008C94600085B480008B9
:104710007D4700083D480008C9460008C946000812
:104720007D480008C94600087D470008C9460008C2
:10473000C9460008454800080B6804F142061A1DE6
:104740001B680A6084F842300123A4E025680868E9
:104750002E0600F104030AD505680B60002D03DA6C
:104760002D236D4284F843300A235E4819E015F08A
:10477000400F05680B6018BF2DB2EFE70B68256886
:10478000181D0860280601D51D6802E06906FBD5E2
:104790001D886F2F0CBF08230A235248002184F87C
:1047A00043106668002EA8BF2168A660A4BF21F050
:1047B000040121600DB9002E4DD01646B5FBF3F172
:1047C00003FB1157C75D06F8017D2F46BB420D461E
:1047D000F4D9082B0BD12368DF0708D5236961685A
:1047E0009942DEBF302306F8013C06F1FF36921BEA
:1047F00022614B4621464046CDF800A003AAFFF7B0
:10480000DFFE01304CD14FF0FF3004B0BDE8F0873F
:10481000344884F845700E68236856F8045B1F0618
:104820000E6014D5D90744BF43F0200323601DB99F
:10483000236823F0200323601023AFE7236843F0AD
:10484000200323607823284884F84530E3E75E0698
:1048500048BFADB2E6E71646BBE70B6826681D1DEC
:1048600060690D6035061B6801D5186002E07106AD
:10487000FBD51880002316462361BAE70B681A1D82
:104880000A601E6800213046626800F0E3FE08B14D
:10489000801B606063682361002384F84330A8E7CD
:1048A0003246494640462369D0470130ABD02368A1
:1048B0009B0713D4E068039B9842B8BF1846A4E74F
:1048C0000123324649464046D04701309BD001354E
:1048D000E36803995B1AAB42F2DCEBE7002504F1D5
:1048E0001906F5E77E6200088F6200080CB430B547
:1048F000174B0C1E1D689DB008DA8B234FF0FF305C
:104900002B601DB0BDE8304002B070474FF4027319
:10491000ADF814300CBF234604F1FF330493079322
:104920004FF6FF7302900690ADF81630284621AB83
:10493000209A02A9019301F0BBFA431CBCBF8B2350
:104940002B60002CDDD00022029B1A70D9E700BF3B
:104950001C0000202DE9F74F03690C690746A342AC
:10496000C0F28380013C00F1140501F1140805EB4D
:104970008403019358F8243055F8242001339A42D7
:10498000B2FBF3F64FEA840B08EB840932D34FF005
:10499000000E4046AC46F24650F8042B93B206FB9C
:1049A00003E3120C4FEA134E06FB02E29BB2AAEBA2
:1049B0000303DCF800A04FEA124E1FFA8AFA5344B0
:1049C0001FFA82FADCF800208145CAEB124202EBA2
:1049D00023429BB243EA02434FEA224A4CF8043B8B
:1049E000DAD255F80B302BB9019B043B9D421A4695
:1049F0002FD33C61384601F064F8002825DB2846B7
:104A00004FF0000C013658F8041BD0F800E08BB2D0
:104A1000ACEB03031FFA8EF213440A0CC2EB1E42E6
:104A200002EB23429BB243EA0243C1454FEA224CC8
:104A300040F8043BE7D255F8242005EB840322B963
:104A4000043B9D421A460AD33C61304603B0BDE8A0
:104A5000F08F1268043B002ACBD1013CC6E71268F4
:104A6000043B002AF0D1013CEBE70020EEE7000018
:104A70002DE9F04F16461F46446A99B00546CDE928
:104A80000467DDF894803CB9102000F0C9FDC0E94E
:104A9000014468620460C4606B6A196851B15A6865
:104AA000012393404A608B60284600F015FE0022E7
:104AB0006B6A1A603B1EAFBF0023012223F0004344
:104AC0000593A8BFC8F80030DDF81490AC4BB8BF10
:104AD000C8F8002033EA090319D142F20F73249A6F
:104AE0001360C9F31303334300F06C85269B53B95D
:104AF000A44B23E0A44B03930833269A1360039836
:104B000019B0BDE8F08F9F4B03930333F5E7DDE960
:104B10000434CDE90C34DDE90C0100220023FBF75D
:104B200023FF804660B10123249A1360269B002B4B
:104B300000F04585954B269A1360013B0393DEE711
:104B400016AB019317AB00932846DDE90C2301F067
:104B50004FF8C9F30A548346002C7FD0DDE90C01DD
:104B60000D9BA4F2FF34C3F3130343F07F5141F4D0
:104B70004011CDF84C800022854BFBF7D5FA7AA383
:104B8000D3E90023FBF788FC79A3D3E90023FBF7E3
:104B9000CDFA064620460F46FBF714FC76A3D3E970
:104BA0000023FBF779FC02460B4630463946FBF7FB
:104BB000BDFA06460F46FBF71FFF00228246002380
:104BC00030463946FBF7DAFE48B15046FBF7FAFBB0
:104BD00032463B46FBF7C8FE08B90AF1FF3ABAF184
:104BE000160F58D8DDE90C016A4B03EBCA03D3E971
:104BF0000023FBF7C3FE00284FD000230AF1FF3A41
:104C00000F93169B1C1B631E099349BFC4F101033C
:104C100000230693002354BF06930993BAF1000FB3
:104C20003DDB099BCDF838A05344099300230A9338
:104C3000229B092B00F2B480052BC4BF043B2293B6
:104C4000229BC8BF0024A3F10203D8BF0124032B79
:104C500000F2B280DFE803F02D7C7AA2DDE9164392
:104C60001C4404F23243202BC3BFC3F1400304F2BF
:104C7000124009FA03F3C3F12003C6BF26FA00F07D
:104C8000184306FA03F0FBF78DFB0123A1F1F8713D
:104C9000013C13936FE70123B2E70F90B1E7069B46
:104CA000A3EB0A030693CAF100030A9300230E93B1
:104CB000BEE700230B93239B002B00F380804FF073
:104CC00001094B46CDF82090CDF88C9000226E6AF9
:104CD0007260042202F114009842716875D9284666
:104CE00000F0C6FC6B6A30601B680393089B0E2BB8
:104CF00000F2EC80002C00F0E980BAF1000F78DDC2
:104D0000244A0AF00F0302EBC3031AF4807FD3E9AD
:104D10000034CDE910344FEA2A145AD0DDE90C01F1
:104D20001D4B0327D3E90823FBF7E0FCCDE9040181
:104D300004F00F04184E002C4DD1DDE91023DDE9FD
:104D40000401FBF7D3FCCDE904016CE00123B1E7DA
:104D500000230B93239B0AEB030909F10103012BA9
:104D60000893B8BF0123B1E761436F63A787D23FC0
:104D7000B3C8608B288AC63FFB799F501344D33F4A
:104D80000000F07FA9620008A06200087D620008B0
:104D90000000F83FE0620008B86200080123D8E78D
:104DA000012400230B9422934FF0FF390022122399
:104DB000CDF82090239289E701230B93F4E7DDF8E7
:104DC0008C904B46CDF8209080E701317160520005
:104DD00080E70227AEE7E10708D5DDE91001D6E953
:104DE0000023FBF759FBCDE91001013764100836A9
:104DF000A1E700F0A580DDE90C01CAF10004A34B96
:104E000004F00F0203EBC203D3E90023FBF744FBDA
:104E100002270023CDE904019D4E2411002C40F00F
:104E20008480002B8FD10F9B002B00F08B80DDE95D
:104E30000434CDE91034DDE910010022954BFBF775
:104E40009DFD00287ED0089B002B7BD0B9F1000F80
:104E500038DDDDE9100100228F4BFBF71DFB4C46CE
:104E6000CDE904010AF1FF3801373846FBF7AAFA09
:104E7000DDE90423FBF710FB0022884BFBF756F912
:104E8000A1F15076CDE910011196002C5DD1DDE93C
:104E900004010022824BFBF747F902460B46CDE99D
:104EA00004233346109AFBF787FD002840F09782D1
:104EB000DDE90401109A06F10043FBF75FFD0028CD
:104EC00040F08B82DDE90C34CDE90434179B002BD4
:104ED000C0F25181BAF10E0F00F34D816B4B03EB21
:104EE000CA03D3E90034CDE90634239B002B80F2BA
:104EF000DB80089B002B00F3D78040F06D82DDE95A
:104F000006010022664BFBF7C7FADDE90423FBF735
:104F100049FD089C2646002840F043823123039F28
:104F20000AF1010A07F8013B3FE2E20705D5D6E99D
:104F30000023FBF7B1FA01230137641008366DE74F
:104F4000022770E7D046089C8FE703994F4B214416
:104F500012910B9903EBC403DDE9106753E90223B7
:104F6000002946D000204F49FBF7C0FB3B463246A4
:104F7000FBF7DAF8CDE91001039FDDE90401FBF747
:104F80003BFD0446FBF71EFA02460B46DDE9040131
:104F9000FBF7CAF802460B463034CDE90423DDE9BD
:104FA000102307F8014BFBF7E9FC002865D1DDE988
:104FB000042300203749FBF7B7F8DDE91023FBF79E
:104FC000DDFC002840F0B680129B9F423FF47AAF90
:104FD000DDE910010022304BFBF75EFA0022CDE93B
:104FE0001001DDE904012C4BFBF756FACDE9040171
:104FF000C3E730463946FBF74FFA129BCDE9100163
:10500000039C1493DDE90401FBF7F6FC1590FBF714
:10501000D9F902460B46DDE90401FBF785F8159B3B
:105020000646303304F8013B129B0F469C424FF07A
:10503000000224D1DDE910011A4BFBF777F8024694
:105040000B4630463946FBF7B7FC002871D1DDE945
:10505000102300201349FBF767F802460B46304641
:105060003946FBF78BFC00283FF42CAF149F7B1EC6
:10507000149317F8013C302BF8D0C24649E0064B98
:10508000FBF70AFACDE90401BCE700BFE0620008C3
:10509000B86200080000F03F0000244000001C40FF
:1050A000000014400000E03F039FDDE90489DDE9D2
:1050B000062340464946FBF719FBFBF79DFC0446D7
:1050C000FBF780F9DDE90623FBF7E6F904F130068A
:1050D0000B46024649464046FBF726F807F8016BA7
:1050E000039E089BBE1BB34238D102460B46FBF71A
:1050F0001DF8DDE9062380468946FBF75DFC58BBB9
:10510000DDE9062340464946FBF72EFC08B1E107DE
:1051100022D42846594600F0DFFA00233B70249B36
:105120000AF101001860269B002B3FF4E8AC1F60D9
:10513000E5E427463B461F4613F8012D392A07D1DF
:10514000039A9A42F7D13022039908F101080A70B4
:105150001A7801321A7090E7D046EBE70022A14B93
:10516000FBF79AF90022002380468946FBF7FCFBF7
:1051700000289CD0CDE70B9A002A00F0CD80229A1F
:10518000012A00F3AF80139A002A00F0A78003F2EF
:1051900033430A9C069F069A01211A440692099AF3
:1051A00028461A44099200F03AFB0646002F0CDD0F
:1051B000099B002B09DDBB42A8BF3B46069AFF1A9C
:1051C000D21A0692099AD31A09930A9BF3B10B9B40
:1051D000002B00F0A580002C10DD31462246284629
:1051E00000F0C2FB5A4601460646284600F020FB66
:1051F00080465946284600F06FFAC3460A9B1A1BA0
:1052000004D05946284600F0AFFB834601212846CA
:1052100000F005FB0E9B0446002B40F383801A46EA
:105220000146284600F0A0FB229B0446012B7CDDB2
:105230004FF00008236904EB8303186900F0A1FA1A
:10524000C0F12000099B184410F01F0000F08E8070
:10525000C0F12003042B40F38780C0F11C00069BA3
:10526000074403440693099B03440993069B002BC0
:1052700005DD59461A46284600F0C4FB8346099BC3
:10528000002B05DD21461A46284600F0BBFB0446EC
:105290000F9B002B6CD02146584600F012FC0028D2
:1052A00066DA002359460A22284600F02CFA0B9BA6
:1052B00083460AF1FF3A002B00F08B813146002330
:1052C0000A22284600F01FFAB9F1000F064600F343
:1052D0009180229B022B40F38D8051E0169BC3F1FD
:1052E000360356E7089B5C1E0A9BA342B7BF0A9B86
:1052F0001C1BE21A0E9BBEBF0A949B180E93089BC0
:10530000B8BF0024002BBBBF069B089A069F9F1ABC
:10531000ACBF089B00233EE70A9C069F0B9E45E717
:105320000A9A6EE7229B012B19DC049BBBB9059BF3
:10533000C3F313039BB9059B23F000431B0D1B050F
:1053400083B14FF00108069B01330693099B01339B
:1053500009930E9B002B7FF46DAF012072E74FF095
:105360000008F6E79846F4E780D018461C3076E748
:10537000089B002B38DC229B022B35DDDDF82090CA
:10538000B9F1000F0DD121464B460522284600F009
:10539000BAF901460446584600F093FB00283FF74F
:1053A000BDAD239B039F6FEA030A4FF0000821461F
:1053B000284600F091F9002E3FF4ABAEB8F1000F93
:1053C00005D0B04503D04146284600F085F9314666
:1053D000284600F081F99CE600242646E1E7C24613
:1053E00026469BE5000024400B9BDDF82090002B17
:1053F00000F0F680002F05DD31463A46284600F0E1
:1054000001FB0646B8F1000F55D07168284600F040
:105410002FF90746326906F10C01023292000C3076
:10542000FEF7EEFD01223946284600F0EBFAB046C1
:105430000646039B01330893039B4B440A93049B4A
:1054400003F001030993089B2146013B584604934E
:10545000FFF780FA034641463033069058460B93D7
:1054600000F02FFB324681462146284600F044FBDF
:10547000C26807460B9B02BB0146584600F021FB61
:1054800002460B9B39462846CDE90B3200F024F941
:10549000229B0C9A089F43EA0201099B0B430B9B3A
:1054A0000DD1392B29D0B9F1000F01DD069B313325
:1054B000049A13707BE73046B9E70122E2E7B9F1BD
:1054C000000F06DB229941EA0909099959EA01010D
:1054D00020D1002AECDD594601222846089300F02D
:1054E00091FA2146834600F0ECFA0028089B02DC82
:1054F000DED1DA07DCD5392BD8D13923049A1370E1
:105500003B461F4617F8012C013B392A50D0013287
:105510001A704CE7002A03DD392BEED00133C7E7C0
:10552000089A0A9902F8013C8A422AD05946002377
:105530000A22284600F0E7F8B04583464FF0000302
:105540004FF00A024146284607D100F0DCF88046B9
:105550000646089B0133089375E700F0D4F83146FE
:10556000804600230A22284600F0CDF80646F0E7E0
:10557000B9F1000FCCBF4F4601274FF00008039A46
:105580001744594601222846089300F03BFA214669
:10559000834600F096FA0028B2DC02D1089BDB07B4
:1055A000AED43B461F4613F8012D302AFAD0FEE652
:1055B000039A9A42A5D131230AF1010A79E7134BE4
:1055C000FFF7BCBA269B002B7FF494AA104BFFF781
:1055D000B5BAB9F1000F03DC229B022B3FF7D0AE26
:1055E000039F21465846FFF7B5F9039A00F13003AF
:1055F00007F8013BBA1A9145BADD594600230A2241
:10560000284600F080F88346EBE700BF7C62000884
:10561000A062000800487047700100207047704782
:10562000024B0146186800F08DBB00BF1C00002033
:1056300082B001B901A942B14BB113780B60127865
:10564000101E18BF012002B070471046FBE76FF034
:105650000100F8E7034610B5C9B202449342184668
:1056600001D1002003E0047801338C42F6D110BD53
:1056700070B5466A04460D463EB91020FFF7D0FFCC
:10568000C0E9016660620660C660666AF36883B15D
:10569000636ADB6853F82500B8B9012101FA05F601
:1056A000721D2046920000F0F2FA60B1C0E9015686
:1056B0000EE021220421204600F0E9FA636AF0603E
:1056C000DB68002BE4D1002070BD026843F8252080
:1056D0000023C0E90333F7E770B5466A05460C4678
:1056E0003EB91020FFF79CFFC0E9016668620660C2
:1056F000C6603CB16B6A6268DB6853F822102160B7
:1057000043F8224070BD2DE9F04198460C46002335
:105710000E69074601F1140005680133A9B202FBC6
:1057200001812D0C4FEA114C02FB05C589B201EB3A
:1057300005419E424FEA154840F8041BECDCB8F1E5
:10574000000F1BD0A368B34212DC616838460131F8
:10575000FFF78EFF0546226904F10C010232920028
:105760000C30FEF74DFC21463846FFF7B5FF2C46BE
:1057700004EB86030136C3F8148026612046BDE899
:10578000F081020C12040346CAB90304102013F07E
:105790007F4F04BF1B02083013F0704F04BF1B0182
:1057A000043013F0404F04BF9B000230002B05DB98
:1057B00013F0804F00F1010008BF20207047002047
:1057C000E5E70368024613F007000BD0D90722D49F
:1057D000980749BF5B089B08012013605CBF02204B
:1057E0001360704799B209B910201B0C13F0FF0F1A
:1057F00004BF1B0A0830190704BF1B0904309907AE
:1058000004BF9B080230D90703D45B0800F10100F4
:1058100003D013607047002070472020704710B5F8
:105820000C460121FFF724FF01224461026110BDF3
:105830002DE9F04F15460A692B690C469A42BEBF06
:105840000B462C461D462769D5F81090A368616861
:1058500007EB0906B342B8BF013185B0FFF708FF77
:1058600000F114010B46002201EB860843451DD3CD
:1058700004F1140305F1140203EB870702EB89031B
:1058800002933B1B153B23F00303043304F115057E
:10589000AF4238BF04230193029B0392934208D87E
:1058A000002E5ADC066105B0BDE8F08F43F8042BEA
:1058B000DCE7B2F800A0BAF1000F24D089464FF01F
:1058C000000C04F1140E5EF8045BD9F800B0ABB222
:1058D0001FFA8BFB0AFB03B34FEA154BD9F80050B4
:1058E00063444FEA154C0AFB0BC505EB13459BB20D
:1058F00043EA054377454FEA154C49F8043BE2D8A3
:10590000019B41F803C0039B0432B3F80290B9F144
:10591000000F20D08E464FF0000A0B6804F1140CE3
:10592000BCF80050BEF802B09BB209FB05B5AA4412
:1059300043EA0A434EF8043B5CF8043BBEF80050CF
:105940001B0C09FB0353674503EB1A434FEA134A49
:10595000E6D8019D4B5104319EE758F8043D002BD9
:10596000A0D1013E9CE700002DE9F843154612F056
:10597000030206460F4607D0214C013A002354F893
:105980002220FFF7C0FE0746AD1035D0746A3CB93F
:105990001020FFF745FEC0E9014470620460C46056
:1059A000D6F82480D8F808404CB940F2712130462E
:1059B000FFF735FF00230446C8F8080003604FF0E6
:1059C0000009EB070AD5394622463046FFF730FF7B
:1059D000804639463046FFF77FFE47466D100BD0B4
:1059E000206838B9224621463046FFF721FF206063
:1059F000C0F800900446E4E73846BDE8F88300BFED
:105A0000A86300082DE9F0470C4607469146236934
:105A1000496803EB6218A3684FEA621A08F10106AD
:105A2000B3423FDB3846FFF723FE0023054600F173
:105A3000140100F110021846534536DB20692AEAAA
:105A4000EA7A04F1140319F01F0901EB8A0103EB50
:105A5000800C2ED08A460022C9F1200E186800FA68
:105A600009F002434AF8042B53F8042B9C4522FA10
:105A70000EF2F3D8ACEB0403153B23F0030304331D
:105A800004F11500604588BF0423CA500AB108F12B
:105A90000206013E384621462E61FFF71DFE2846CC
:105AA000BDE8F08701315B00BAE742F8040F01332B
:105AB000C2E7043953F8042B9C4541F8042FF9D868
:105AC000E7E703460A69006930B5801A0DD114333F
:105AD000143103EB820401EB820154F8045D51F8A8
